{
    "_format": "hh-sol-artifact-1",
    "contractName": "FundCampaign",
    "sourceName": "contracts/FundCampaign.sol",
    "abi": [
        {
            "inputs": [
                {
                    "internalType": "string",
                    "name": "_projectName",
                    "type": "string"
                },
                {
                    "internalType": "string",
                    "name": "_relevantMinistry",
                    "type": "string"
                },
                {
                    "internalType": "uint256",
                    "name": "_fundAmount",
                    "type": "uint256"
                },
                {
                    "internalType": "address",
                    "name": "_owner",
                    "type": "address"
                }
            ],
            "stateMutability": "nonpayable",
            "type": "constructor"
        },
        {
            "anonymous": false,
            "inputs": [
                {
                    "indexed": true,
                    "internalType": "address",
                    "name": "",
                    "type": "address"
                },
                {
                    "indexed": false,
                    "internalType": "uint256",
                    "name": "fundAmount",
                    "type": "uint256"
                },
                {
                    "indexed": false,
                    "internalType": "uint256",
                    "name": "timeStamp",
                    "type": "uint256"
                }
            ],
            "name": "amountTransfered",
            "type": "event"
        },
        {
            "inputs": [],
            "name": "fundAmount",
            "outputs": [
                {
                    "internalType": "uint256",
                    "name": "",
                    "type": "uint256"
                }
            ],
            "stateMutability": "view",
            "type": "function"
        },
        {
            "inputs": [],
            "name": "owner",
            "outputs": [
                {
                    "internalType": "address payable",
                    "name": "",
                    "type": "address"
                }
            ],
            "stateMutability": "view",
            "type": "function"
        },
        {
            "inputs": [],
            "name": "projectName",
            "outputs": [
                {
                    "internalType": "string",
                    "name": "",
                    "type": "string"
                }
            ],
            "stateMutability": "view",
            "type": "function"
        },
        {
            "inputs": [],
            "name": "receviedAmount",
            "outputs": [
                {
                    "internalType": "uint256",
                    "name": "",
                    "type": "uint256"
                }
            ],
            "stateMutability": "view",
            "type": "function"
        },
        {
            "inputs": [],
            "name": "relevantMinistry",
            "outputs": [
                {
                    "internalType": "string",
                    "name": "",
                    "type": "string"
                }
            ],
            "stateMutability": "view",
            "type": "function"
        },
        {
            "inputs": [],
            "name": "transferAmount",
            "outputs": [],
            "stateMutability": "payable",
            "type": "function"
        }
    ],
    "bytecode": "0x60806040523480156200001157600080fd5b5060405162000b6c38038062000b6c8339818101604052810190620000379190620003a8565b83600090805190602001906200004f929190620000bb565b50826001908051906020019062000068929190620000bb565b508160028190555080600360006101000a81548173ffffffffffffffffffffffffffffffffffffffff021916908373ffffffffffffffffffffffffffffffffffffffff16021790555050505050620004bd565b828054620000c99062000487565b90600052602060002090601f016020900481019282620000ed576000855562000139565b82601f106200010857805160ff191683800117855562000139565b8280016001018555821562000139579182015b82811115620001385782518255916020019190600101906200011b565b5b5090506200014891906200014c565b5090565b5b80821115620001675760008160009055506001016200014d565b5090565b6000604051905090565b600080fd5b600080fd5b600080fd5b600080fd5b6000601f19601f8301169050919050565b7f4e487b7100000000000000000000000000000000000000000000000000000000600052604160045260246000fd5b620001d48262000189565b810181811067ffffffffffffffff82111715620001f657620001f56200019a565b5b80604052505050565b60006200020b6200016b565b9050620002198282620001c9565b919050565b600067ffffffffffffffff8211156200023c576200023b6200019a565b5b620002478262000189565b9050602081019050919050565b60005b838110156200027457808201518184015260208101905062000257565b8381111562000284576000848401525b50505050565b6000620002a16200029b846200021e565b620001ff565b905082815260208101848484011115620002c057620002bf62000184565b5b620002cd84828562000254565b509392505050565b600082601f830112620002ed57620002ec6200017f565b5b8151620002ff8482602086016200028a565b91505092915050565b6000819050919050565b6200031d8162000308565b81146200032957600080fd5b50565b6000815190506200033d8162000312565b92915050565b600073ffffffffffffffffffffffffffffffffffffffff82169050919050565b6000620003708262000343565b9050919050565b620003828162000363565b81146200038e57600080fd5b50565b600081519050620003a28162000377565b92915050565b60008060008060808587031215620003c557620003c462000175565b5b600085015167ffffffffffffffff811115620003e657620003e56200017a565b5b620003f487828801620002d5565b945050602085015167ffffffffffffffff8111156200041857620004176200017a565b5b6200042687828801620002d5565b935050604062000439878288016200032c565b92505060606200044c8782880162000391565b91505092959194509250565b7f4e487b7100000000000000000000000000000000000000000000000000000000600052602260045260246000fd5b60006002820490506001821680620004a057607f821691505b60208210811415620004b757620004b662000458565b5b50919050565b61069f80620004cd6000396000f3fe6080604052600436106100555760003560e01c806315f9a0c61461005a578063504d27fd1461008557806350ac16031461008f5780638da5cb5b146100ba5780639a33e300146100e5578063aaf7e70414610110575b600080fd5b34801561006657600080fd5b5061006f61013b565b60405161007c919061043c565b60405180910390f35b61008d6101c9565b005b34801561009b57600080fd5b506100a46102e3565b6040516100b19190610477565b60405180910390f35b3480156100c657600080fd5b506100cf6102e9565b6040516100dc91906104d3565b60405180910390f35b3480156100f157600080fd5b506100fa61030f565b604051610107919061043c565b60405180910390f35b34801561011c57600080fd5b5061012561039d565b6040516101329190610477565b60405180910390f35b600180546101489061051d565b80601f01602080910402602001604051908101604052809291908181526020018280546101749061051d565b80156101c15780601f10610196576101008083540402835291602001916101c1565b820191906000526020600020905b8154815290600101906020018083116101a457829003601f168201915b505050505081565b6004546002541161020f576040517f08c379a00000000000000000000000000000000000000000000000000000000081526004016102069061059b565b60405180910390fd5b600360009054906101000a900473ffffffffffffffffffffffffffffffffffffffff1673ffffffffffffffffffffffffffffffffffffffff166108fc349081150290604051600060405180830381858888f19350505050158015610277573d6000803e3d6000fd5b50346004600082825461028a91906105ea565b925050819055503373ffffffffffffffffffffffffffffffffffffffff167fd1a457b351ac54a036510f43d910e9047697edd68abc91bb1f73a9038f4c184334426040516102d9929190610640565b60405180910390a2565b60045481565b600360009054906101000a900473ffffffffffffffffffffffffffffffffffffffff1681565b6000805461031c9061051d565b80601f01602080910402602001604051908101604052809291908181526020018280546103489061051d565b80156103955780601f1061036a57610100808354040283529160200191610395565b820191906000526020600020905b81548152906001019060200180831161037857829003601f168201915b505050505081565b60025481565b600081519050919050565b600082825260208201905092915050565b60005b838110156103dd5780820151818401526020810190506103c2565b838111156103ec576000848401525b50505050565b6000601f19601f8301169050919050565b600061040e826103a3565b61041881856103ae565b93506104288185602086016103bf565b610431816103f2565b840191505092915050565b600060208201905081810360008301526104568184610403565b905092915050565b6000819050919050565b6104718161045e565b82525050565b600060208201905061048c6000830184610468565b92915050565b600073ffffffffffffffffffffffffffffffffffffffff82169050919050565b60006104bd82610492565b9050919050565b6104cd816104b2565b82525050565b60006020820190506104e860008301846104c4565b92915050565b7f4e487b7100000000000000000000000000000000000000000000000000000000600052602260045260246000fd5b6000600282049050600182168061053557607f821691505b60208210811415610549576105486104ee565b5b50919050565b7f50726f6a65637420416d6f756e742046756c6c66696c6c656400000000000000600082015250565b60006105856019836103ae565b91506105908261054f565b602082019050919050565b600060208201905081810360008301526105b481610578565b9050919050565b7f4e487b7100000000000000000000000000000000000000000000000000000000600052601160045260246000fd5b60006105f58261045e565b91506106008361045e565b9250827fffffffffffffffffffffffffffffffffffffffffffffffffffffffffffffffff03821115610635576106346105bb565b5b828201905092915050565b60006040820190506106556000830185610468565b6106626020830184610468565b939250505056fea26469706673582212207ecb4b2efa8f5cf03970994abc34f474d6cbd59fe027c92a9272da20d9f73bdf64736f6c63430008090033",
    "linkReferences": {},
    "deployedLinkReferences": {}
}