{
  "_format": "hh-sol-artifact-1",
  "contractName": "FundFactory",
  "sourceName": "contracts/FundCampaign.sol",
  "abi": [
    {
      "anonymous": false,
      "inputs": [
        {
          "indexed": false,
          "internalType": "string",
          "name": "projectName",
          "type": "string"
        },
        {
          "indexed": false,
          "internalType": "string",
          "name": "relevantMinistry",
          "type": "string"
        },
        {
          "indexed": false,
          "internalType": "uint256",
          "name": "fundAmount",
          "type": "uint256"
        },
        {
          "indexed": false,
          "internalType": "address",
          "name": "owner",
          "type": "address"
        },
        {
          "indexed": false,
          "internalType": "address",
          "name": "fundRequest",
          "type": "address"
        },
        {
          "indexed": true,
          "internalType": "uint256",
          "name": "timestamp",
          "type": "uint256"
        }
      ],
      "name": "fundRequestCreated",
      "type": "event"
    },
    {
      "inputs": [
        {
          "internalType": "string",
          "name": "_projectName",
          "type": "string"
        },
        {
          "internalType": "string",
          "name": "_relevantMinistry",
          "type": "string"
        },
        {
          "internalType": "uint256",
          "name": "_fundAmount",
          "type": "uint256"
        }
      ],
      "name": "createFundCampaign",
      "outputs": [],
      "stateMutability": "nonpayable",
      "type": "function"
    },
    {
      "inputs": [
        {
          "internalType": "uint256",
          "name": "",
          "type": "uint256"
        }
      ],
      "name": "deployedFundsRequest",
      "outputs": [
        {
          "internalType": "address",
          "name": "",
          "type": "address"
        }
      ],
      "stateMutability": "view",
      "type": "function"
    }
  ],
  "bytecode": "0x608060405234801561001057600080fd5b506111bc806100206000396000f3fe60806040523480156200001157600080fd5b50600436106200003a5760003560e01c8063e06bcdf2146200003f578063e60c81641462000075575b600080fd5b6200005d600480360381019062000057919062000220565b62000095565b6040516200006c919062000297565b60405180910390f35b6200009360048036038101906200008d919062000416565b620000d5565b005b60008181548110620000a657600080fd5b906000526020600020016000915054906101000a900473ffffffffffffffffffffffffffffffffffffffff1681565b600083838333604051620000e990620001c3565b620000f8949392919062000554565b604051809103906000f08015801562000115573d6000803e3d6000fd5b5090506000819080600181540180825580915050600190039060005260206000200160009091909190916101000a81548173ffffffffffffffffffffffffffffffffffffffff021916908373ffffffffffffffffffffffffffffffffffffffff160217905550427f792681fe205ff11a9dc755494a18990a45f23871bb160711a2bded99159222568585853386604051620001b5959493929190620005af565b60405180910390a250505050565b610b6c806200061b83390190565b6000604051905090565b600080fd5b600080fd5b6000819050919050565b620001fa81620001e5565b81146200020657600080fd5b50565b6000813590506200021a81620001ef565b92915050565b600060208284031215620002395762000238620001db565b5b6000620002498482850162000209565b91505092915050565b600073ffffffffffffffffffffffffffffffffffffffff82169050919050565b60006200027f8262000252565b9050919050565b620002918162000272565b82525050565b6000602082019050620002ae600083018462000286565b92915050565b600080fd5b600080fd5b6000601f19601f8301169050919050565b7f4e487b7100000000000000000000000000000000000000000000000000000000600052604160045260246000fd5b6200030982620002be565b810181811067ffffffffffffffff821117156200032b576200032a620002cf565b5b80604052505050565b600062000340620001d1565b90506200034e8282620002fe565b919050565b600067ffffffffffffffff821115620003715762000370620002cf565b5b6200037c82620002be565b9050602081019050919050565b82818337600083830152505050565b6000620003af620003a98462000353565b62000334565b905082815260208101848484011115620003ce57620003cd620002b9565b5b620003db84828562000389565b509392505050565b600082601f830112620003fb57620003fa620002b4565b5b81356200040d84826020860162000398565b91505092915050565b600080600060608486031215620004325762000431620001db565b5b600084013567ffffffffffffffff811115620004535762000452620001e0565b5b6200046186828701620003e3565b935050602084013567ffffffffffffffff811115620004855762000484620001e0565b5b6200049386828701620003e3565b9250506040620004a68682870162000209565b9150509250925092565b600081519050919050565b600082825260208201905092915050565b60005b83811015620004ec578082015181840152602081019050620004cf565b83811115620004fc576000848401525b50505050565b60006200050f82620004b0565b6200051b8185620004bb565b93506200052d818560208601620004cc565b6200053881620002be565b840191505092915050565b6200054e81620001e5565b82525050565b6000608082019050818103600083015262000570818762000502565b9050818103602083015262000586818662000502565b905062000597604083018562000543565b620005a6606083018462000286565b95945050505050565b600060a0820190508181036000830152620005cb818862000502565b90508181036020830152620005e1818762000502565b9050620005f2604083018662000543565b62000601606083018562000286565b62000610608083018462000286565b969550505050505056fe60806040523480156200001157600080fd5b5060405162000b6c38038062000b6c8339818101604052810190620000379190620003a8565b83600090805190602001906200004f929190620000bb565b50826001908051906020019062000068929190620000bb565b508160028190555080600360006101000a81548173ffffffffffffffffffffffffffffffffffffffff021916908373ffffffffffffffffffffffffffffffffffffffff16021790555050505050620004bd565b828054620000c99062000487565b90600052602060002090601f016020900481019282620000ed576000855562000139565b82601f106200010857805160ff191683800117855562000139565b8280016001018555821562000139579182015b82811115620001385782518255916020019190600101906200011b565b5b5090506200014891906200014c565b5090565b5b80821115620001675760008160009055506001016200014d565b5090565b6000604051905090565b600080fd5b600080fd5b600080fd5b600080fd5b6000601f19601f8301169050919050565b7f4e487b7100000000000000000000000000000000000000000000000000000000600052604160045260246000fd5b620001d48262000189565b810181811067ffffffffffffffff82111715620001f657620001f56200019a565b5b80604052505050565b60006200020b6200016b565b9050620002198282620001c9565b919050565b600067ffffffffffffffff8211156200023c576200023b6200019a565b5b620002478262000189565b9050602081019050919050565b60005b838110156200027457808201518184015260208101905062000257565b8381111562000284576000848401525b50505050565b6000620002a16200029b846200021e565b620001ff565b905082815260208101848484011115620002c057620002bf62000184565b5b620002cd84828562000254565b509392505050565b600082601f830112620002ed57620002ec6200017f565b5b8151620002ff8482602086016200028a565b91505092915050565b6000819050919050565b6200031d8162000308565b81146200032957600080fd5b50565b6000815190506200033d8162000312565b92915050565b600073ffffffffffffffffffffffffffffffffffffffff82169050919050565b6000620003708262000343565b9050919050565b620003828162000363565b81146200038e57600080fd5b50565b600081519050620003a28162000377565b92915050565b60008060008060808587031215620003c557620003c462000175565b5b600085015167ffffffffffffffff811115620003e657620003e56200017a565b5b620003f487828801620002d5565b945050602085015167ffffffffffffffff8111156200041857620004176200017a565b5b6200042687828801620002d5565b935050604062000439878288016200032c565b92505060606200044c8782880162000391565b91505092959194509250565b7f4e487b7100000000000000000000000000000000000000000000000000000000600052602260045260246000fd5b60006002820490506001821680620004a057607f821691505b60208210811415620004b757620004b662000458565b5b50919050565b61069f80620004cd6000396000f3fe6080604052600436106100555760003560e01c806315f9a0c61461005a578063504d27fd1461008557806350ac16031461008f5780638da5cb5b146100ba5780639a33e300146100e5578063aaf7e70414610110575b600080fd5b34801561006657600080fd5b5061006f61013b565b60405161007c919061043c565b60405180910390f35b61008d6101c9565b005b34801561009b57600080fd5b506100a46102e3565b6040516100b19190610477565b60405180910390f35b3480156100c657600080fd5b506100cf6102e9565b6040516100dc91906104d3565b60405180910390f35b3480156100f157600080fd5b506100fa61030f565b604051610107919061043c565b60405180910390f35b34801561011c57600080fd5b5061012561039d565b6040516101329190610477565b60405180910390f35b600180546101489061051d565b80601f01602080910402602001604051908101604052809291908181526020018280546101749061051d565b80156101c15780601f10610196576101008083540402835291602001916101c1565b820191906000526020600020905b8154815290600101906020018083116101a457829003601f168201915b505050505081565b6004546002541161020f576040517f08c379a00000000000000000000000000000000000000000000000000000000081526004016102069061059b565b60405180910390fd5b600360009054906101000a900473ffffffffffffffffffffffffffffffffffffffff1673ffffffffffffffffffffffffffffffffffffffff166108fc349081150290604051600060405180830381858888f19350505050158015610277573d6000803e3d6000fd5b50346004600082825461028a91906105ea565b925050819055503373ffffffffffffffffffffffffffffffffffffffff167fd1a457b351ac54a036510f43d910e9047697edd68abc91bb1f73a9038f4c184334426040516102d9929190610640565b60405180910390a2565b60045481565b600360009054906101000a900473ffffffffffffffffffffffffffffffffffffffff1681565b6000805461031c9061051d565b80601f01602080910402602001604051908101604052809291908181526020018280546103489061051d565b80156103955780601f1061036a57610100808354040283529160200191610395565b820191906000526020600020905b81548152906001019060200180831161037857829003601f168201915b505050505081565b60025481565b600081519050919050565b600082825260208201905092915050565b60005b838110156103dd5780820151818401526020810190506103c2565b838111156103ec576000848401525b50505050565b6000601f19601f8301169050919050565b600061040e826103a3565b61041881856103ae565b93506104288185602086016103bf565b610431816103f2565b840191505092915050565b600060208201905081810360008301526104568184610403565b905092915050565b6000819050919050565b6104718161045e565b82525050565b600060208201905061048c6000830184610468565b92915050565b600073ffffffffffffffffffffffffffffffffffffffff82169050919050565b60006104bd82610492565b9050919050565b6104cd816104b2565b82525050565b60006020820190506104e860008301846104c4565b92915050565b7f4e487b7100000000000000000000000000000000000000000000000000000000600052602260045260246000fd5b6000600282049050600182168061053557607f821691505b60208210811415610549576105486104ee565b5b50919050565b7f50726f6a65637420416d6f756e742046756c6c66696c6c656400000000000000600082015250565b60006105856019836103ae565b91506105908261054f565b602082019050919050565b600060208201905081810360008301526105b481610578565b9050919050565b7f4e487b7100000000000000000000000000000000000000000000000000000000600052601160045260246000fd5b60006105f58261045e565b91506106008361045e565b9250827fffffffffffffffffffffffffffffffffffffffffffffffffffffffffffffffff03821115610635576106346105bb565b5b828201905092915050565b60006040820190506106556000830185610468565b6106626020830184610468565b939250505056fea26469706673582212207ecb4b2efa8f5cf03970994abc34f474d6cbd59fe027c92a9272da20d9f73bdf64736f6c63430008090033a2646970667358221220755684dbc5a779073e96dbd641605641042b680012b20127f9bea68df12f69e364736f6c63430008090033",
  "linkReferences": {},
  "deployedLinkReferences": {}
}